{
  "contractName": "SmartContract",
  "abi": [
    {
      "inputs": [],
      "stateMutability": "nonpayable",
      "type": "constructor"
    },
    {
      "anonymous": false,
      "inputs": [
        {
          "indexed": true,
          "internalType": "address",
          "name": "owner",
          "type": "address"
        },
        {
          "indexed": true,
          "internalType": "address",
          "name": "approved",
          "type": "address"
        },
        {
          "indexed": true,
          "internalType": "uint256",
          "name": "tokenId",
          "type": "uint256"
        }
      ],
      "name": "Approval",
      "type": "event"
    },
    {
      "anonymous": false,
      "inputs": [
        {
          "indexed": true,
          "internalType": "address",
          "name": "owner",
          "type": "address"
        },
        {
          "indexed": true,
          "internalType": "address",
          "name": "operator",
          "type": "address"
        },
        {
          "indexed": false,
          "internalType": "bool",
          "name": "approved",
          "type": "bool"
        }
      ],
      "name": "ApprovalForAll",
      "type": "event"
    },
    {
      "anonymous": false,
      "inputs": [
        {
          "indexed": true,
          "internalType": "address",
          "name": "previousOwner",
          "type": "address"
        },
        {
          "indexed": true,
          "internalType": "address",
          "name": "newOwner",
          "type": "address"
        }
      ],
      "name": "OwnershipTransferred",
      "type": "event"
    },
    {
      "anonymous": false,
      "inputs": [
        {
          "indexed": true,
          "internalType": "address",
          "name": "from",
          "type": "address"
        },
        {
          "indexed": true,
          "internalType": "address",
          "name": "to",
          "type": "address"
        },
        {
          "indexed": true,
          "internalType": "uint256",
          "name": "tokenId",
          "type": "uint256"
        }
      ],
      "name": "Transfer",
      "type": "event"
    },
    {
      "inputs": [
        {
          "internalType": "address",
          "name": "to",
          "type": "address"
        },
        {
          "internalType": "uint256",
          "name": "tokenId",
          "type": "uint256"
        }
      ],
      "name": "approve",
      "outputs": [],
      "stateMutability": "nonpayable",
      "type": "function"
    },
    {
      "inputs": [
        {
          "internalType": "address",
          "name": "owner",
          "type": "address"
        }
      ],
      "name": "balanceOf",
      "outputs": [
        {
          "internalType": "uint256",
          "name": "",
          "type": "uint256"
        }
      ],
      "stateMutability": "view",
      "type": "function",
      "constant": true
    },
    {
      "inputs": [
        {
          "internalType": "uint256",
          "name": "tokenId",
          "type": "uint256"
        }
      ],
      "name": "getApproved",
      "outputs": [
        {
          "internalType": "address",
          "name": "",
          "type": "address"
        }
      ],
      "stateMutability": "view",
      "type": "function",
      "constant": true
    },
    {
      "inputs": [
        {
          "internalType": "address",
          "name": "owner",
          "type": "address"
        },
        {
          "internalType": "address",
          "name": "operator",
          "type": "address"
        }
      ],
      "name": "isApprovedForAll",
      "outputs": [
        {
          "internalType": "bool",
          "name": "",
          "type": "bool"
        }
      ],
      "stateMutability": "view",
      "type": "function",
      "constant": true
    },
    {
      "inputs": [],
      "name": "name",
      "outputs": [
        {
          "internalType": "string",
          "name": "",
          "type": "string"
        }
      ],
      "stateMutability": "view",
      "type": "function",
      "constant": true
    },
    {
      "inputs": [],
      "name": "owner",
      "outputs": [
        {
          "internalType": "address",
          "name": "",
          "type": "address"
        }
      ],
      "stateMutability": "view",
      "type": "function",
      "constant": true
    },
    {
      "inputs": [
        {
          "internalType": "uint256",
          "name": "tokenId",
          "type": "uint256"
        }
      ],
      "name": "ownerOf",
      "outputs": [
        {
          "internalType": "address",
          "name": "",
          "type": "address"
        }
      ],
      "stateMutability": "view",
      "type": "function",
      "constant": true
    },
    {
      "inputs": [],
      "name": "renounceOwnership",
      "outputs": [],
      "stateMutability": "nonpayable",
      "type": "function"
    },
    {
      "inputs": [
        {
          "internalType": "address",
          "name": "from",
          "type": "address"
        },
        {
          "internalType": "address",
          "name": "to",
          "type": "address"
        },
        {
          "internalType": "uint256",
          "name": "tokenId",
          "type": "uint256"
        }
      ],
      "name": "safeTransferFrom",
      "outputs": [],
      "stateMutability": "nonpayable",
      "type": "function"
    },
    {
      "inputs": [
        {
          "internalType": "address",
          "name": "from",
          "type": "address"
        },
        {
          "internalType": "address",
          "name": "to",
          "type": "address"
        },
        {
          "internalType": "uint256",
          "name": "tokenId",
          "type": "uint256"
        },
        {
          "internalType": "bytes",
          "name": "_data",
          "type": "bytes"
        }
      ],
      "name": "safeTransferFrom",
      "outputs": [],
      "stateMutability": "nonpayable",
      "type": "function"
    },
    {
      "inputs": [
        {
          "internalType": "address",
          "name": "operator",
          "type": "address"
        },
        {
          "internalType": "bool",
          "name": "approved",
          "type": "bool"
        }
      ],
      "name": "setApprovalForAll",
      "outputs": [],
      "stateMutability": "nonpayable",
      "type": "function"
    },
    {
      "inputs": [
        {
          "internalType": "bytes4",
          "name": "interfaceId",
          "type": "bytes4"
        }
      ],
      "name": "supportsInterface",
      "outputs": [
        {
          "internalType": "bool",
          "name": "",
          "type": "bool"
        }
      ],
      "stateMutability": "view",
      "type": "function",
      "constant": true
    },
    {
      "inputs": [],
      "name": "symbol",
      "outputs": [
        {
          "internalType": "string",
          "name": "",
          "type": "string"
        }
      ],
      "stateMutability": "view",
      "type": "function",
      "constant": true
    },
    {
      "inputs": [
        {
          "internalType": "uint256",
          "name": "tokenId",
          "type": "uint256"
        }
      ],
      "name": "tokenURI",
      "outputs": [
        {
          "internalType": "string",
          "name": "",
          "type": "string"
        }
      ],
      "stateMutability": "view",
      "type": "function",
      "constant": true
    },
    {
      "inputs": [
        {
          "internalType": "address",
          "name": "from",
          "type": "address"
        },
        {
          "internalType": "address",
          "name": "to",
          "type": "address"
        },
        {
          "internalType": "uint256",
          "name": "tokenId",
          "type": "uint256"
        }
      ],
      "name": "transferFrom",
      "outputs": [],
      "stateMutability": "nonpayable",
      "type": "function"
    },
    {
      "inputs": [
        {
          "internalType": "address",
          "name": "newOwner",
          "type": "address"
        }
      ],
      "name": "transferOwnership",
      "outputs": [],
      "stateMutability": "nonpayable",
      "type": "function"
    },
    {
      "inputs": [
        {
          "internalType": "address",
          "name": "_to",
          "type": "address"
        },
        {
          "internalType": "string",
          "name": "uri",
          "type": "string"
        }
      ],
      "name": "CreateCollectible",
      "outputs": [
        {
          "internalType": "uint256",
          "name": "",
          "type": "uint256"
        }
      ],
      "stateMutability": "payable",
      "type": "function",
      "payable": true
    },
    {
      "inputs": [],
      "name": "GetAllExistingTokens",
      "outputs": [
        {
          "components": [
            {
              "internalType": "uint256",
              "name": "id",
              "type": "uint256"
            },
            {
              "internalType": "string",
              "name": "uri",
              "type": "string"
            }
          ],
          "internalType": "struct SmartContract.NFToken[]",
          "name": "",
          "type": "tuple[]"
        }
      ],
      "stateMutability": "view",
      "type": "function",
      "constant": true
    },
    {
      "inputs": [
        {
          "internalType": "address",
          "name": "_address",
          "type": "address"
        }
      ],
      "name": "WithdrawAll",
      "outputs": [],
      "stateMutability": "nonpayable",
      "type": "function"
    },
    {
      "inputs": [],
      "name": "BalanceOf",
      "outputs": [
        {
          "internalType": "uint256",
          "name": "",
          "type": "uint256"
        }
      ],
      "stateMutability": "view",
      "type": "function",
      "constant": true
    }
  ],
  "bytecode": "0x60806040523480156200001157600080fd5b506040518060400160405280600881526020016715195cdd0813919560c21b8152506040518060400160405280600781526020016615195cdd13919560ca1b8152506200006d62000067620000b160201b60201c565b620000b5565b81516200008290600190602085019062000105565b5080516200009890600290602084019062000105565b5050601e6009555066d529ae9e860000600a55620001e8565b3390565b600080546001600160a01b038381166001600160a01b0319831681178455604051919092169283917f8be0079c531659141344cd1fd0a4f28419497f9722a3daafe3b4186f6b6457e09190a35050565b8280546200011390620001ab565b90600052602060002090601f01602090048101928262000137576000855562000182565b82601f106200015257805160ff191683800117855562000182565b8280016001018555821562000182579182015b828111156200018257825182559160200191906001019062000165565b506200019092915062000194565b5090565b5b8082111562000190576000815560010162000195565b600281046001821680620001c057607f821691505b60208210811415620001e257634e487b7160e01b600052602260045260246000fd5b50919050565b611e7380620001f86000396000f3fe60806040526004361061011f5760003560e01c8063715018a6116100a0578063a5058b0811610064578063a5058b08146102ff578063b88d4fde14610321578063c87b56dd14610341578063e985e9c514610361578063f2fde38b146103815761011f565b8063715018a61461028b5780638da5cb5b146102a057806395d89b41146102b55780639a3174a0146102ca578063a22cb465146102df5761011f565b80632b3ede1c116100e75780632b3ede1c146101eb57806342842e0e1461020b578063475cf4021461022b5780636352211e1461024b57806370a082311461026b5761011f565b806301ffc9a71461012457806306fdde031461015a578063081812fc1461017c578063095ea7b3146101a957806323b872dd146101cb575b600080fd5b34801561013057600080fd5b5061014461013f3660046115e4565b6103a1565b6040516101519190611754565b60405180910390f35b34801561016657600080fd5b5061016f6103e9565b604051610151919061175f565b34801561018857600080fd5b5061019c61019736600461161c565b61047b565b6040516101519190611692565b3480156101b557600080fd5b506101c96101c43660046115bb565b6104c7565b005b3480156101d757600080fd5b506101c96101e636600461146e565b61055f565b3480156101f757600080fd5b506101c9610206366004611422565b610597565b34801561021757600080fd5b506101c961022636600461146e565b6105ef565b61023e61023936600461155c565b61060a565b6040516101519190611d03565b34801561025757600080fd5b5061019c61026636600461161c565b610690565b34801561027757600080fd5b5061023e610286366004611422565b6106c5565b34801561029757600080fd5b506101c9610709565b3480156102ac57600080fd5b5061019c610754565b3480156102c157600080fd5b5061016f610763565b3480156102d657600080fd5b5061023e610772565b3480156102eb57600080fd5b506101c96102fa366004611522565b610776565b34801561030b57600080fd5b50610314610844565b60405161015191906116e3565b34801561032d57600080fd5b506101c961033c3660046114a9565b610952565b34801561034d57600080fd5b5061016f61035c36600461161c565b610991565b34801561036d57600080fd5b5061014461037c36600461143c565b610aaa565b34801561038d57600080fd5b506101c961039c366004611422565b610ad8565b60006001600160e01b031982166380ac58cd60e01b14806103d257506001600160e01b03198216635b5e139f60e01b145b806103e157506103e182610b49565b90505b919050565b6060600180546103f890611d7b565b80601f016020809104026020016040519081016040528092919081815260200182805461042490611d7b565b80156104715780601f1061044657610100808354040283529160200191610471565b820191906000526020600020905b81548152906001019060200180831161045457829003601f168201915b5050505050905090565b600061048682610b62565b6104ab5760405162461bcd60e51b81526004016104a290611b03565b60405180910390fd5b506000908152600560205260409020546001600160a01b031690565b60006104d282610690565b9050806001600160a01b0316836001600160a01b031614156105065760405162461bcd60e51b81526004016104a290611c47565b806001600160a01b0316610518610b7f565b6001600160a01b0316148061053457506105348161037c610b7f565b6105505760405162461bcd60e51b81526004016104a29061193f565b61055a8383610b83565b505050565b61057061056a610b7f565b82610bf1565b61058c5760405162461bcd60e51b81526004016104a290611cb2565b61055a838383610c6e565b61059f610b7f565b6001600160a01b03166105b0610754565b6001600160a01b0316146105d65760405162461bcd60e51b81526004016104a290611b4f565b47806105e157600080fd5b6105eb8247610d9b565b5050565b61055a83838360405180602001604052806000815250610952565b6000806106176008610e17565b9050600954811061063a5760405162461bcd60e51b81526004016104a290611841565b600a5434101561065c5760405162461bcd60e51b81526004016104a290611c1c565b6106666008610e1b565b60006106726008610e17565b905061067e8582610e24565b6106888185610e3e565b949350505050565b6000818152600360205260408120546001600160a01b0316806103e15760405162461bcd60e51b81526004016104a2906119e6565b60006001600160a01b0382166106ed5760405162461bcd60e51b81526004016104a29061199c565b506001600160a01b031660009081526004602052604090205490565b610711610b7f565b6001600160a01b0316610722610754565b6001600160a01b0316146107485760405162461bcd60e51b81526004016104a290611b4f565b6107526000610e82565b565b6000546001600160a01b031690565b6060600280546103f890611d7b565b4790565b61077e610b7f565b6001600160a01b0316826001600160a01b031614156107af5760405162461bcd60e51b81526004016104a2906118bc565b80600660006107bc610b7f565b6001600160a01b03908116825260208083019390935260409182016000908120918716808252919093529120805460ff191692151592909217909155610800610b7f565b6001600160a01b03167f17307eab39ab6107e8899845ad3d59bd9653f200f220920489ca2b5937696c31836040516108389190611754565b60405180910390a35050565b606060006108526008610e17565b67ffffffffffffffff81111561087857634e487b7160e01b600052604160045260246000fd5b6040519080825280602002602001820160405280156108b157816020015b61089e6112e8565b8152602001906001900390816108965790505b50905060005b6108c16008610e17565b81101561094c576108db6108d6826001611d0c565b610b62565b1561093a5760405180604001604052808260016108f89190611d0c565b815260200161090b61035c846001611d0c565b81525082828151811061092e57634e487b7160e01b600052603260045260246000fd5b60200260200101819052505b8061094481611db6565b9150506108b7565b50905090565b61096361095d610b7f565b83610bf1565b61097f5760405162461bcd60e51b81526004016104a290611cb2565b61098b84848484610ed2565b50505050565b606061099c82610b62565b6109b85760405162461bcd60e51b81526004016104a290611ab2565b600082815260076020526040812080546109d190611d7b565b80601f01602080910402602001604051908101604052809291908181526020018280546109fd90611d7b565b8015610a4a5780601f10610a1f57610100808354040283529160200191610a4a565b820191906000526020600020905b815481529060010190602001808311610a2d57829003601f168201915b505050505090506000610a5b610f05565b9050805160001415610a6f575090506103e4565b815115610aa1578082604051602001610a89929190611660565b604051602081830303815290604052925050506103e4565b61068884610f17565b6001600160a01b03918216600090815260066020908152604080832093909416825291909152205460ff1690565b610ae0610b7f565b6001600160a01b0316610af1610754565b6001600160a01b031614610b175760405162461bcd60e51b81526004016104a290611b4f565b6001600160a01b038116610b3d5760405162461bcd60e51b81526004016104a2906117c4565b610b4681610e82565b50565b6001600160e01b031981166301ffc9a760e01b14919050565b6000908152600360205260409020546001600160a01b0316151590565b3390565b600081815260056020526040902080546001600160a01b0319166001600160a01b0384169081179091558190610bb882610690565b6001600160a01b03167f8c5be1e5ebec7d5bd14f71427d1e84f3dd0314c0f7b2291e5b200ac8c7c3b92560405160405180910390a45050565b6000610bfc82610b62565b610c185760405162461bcd60e51b81526004016104a2906118f3565b6000610c2383610690565b9050806001600160a01b0316846001600160a01b03161480610c5e5750836001600160a01b0316610c538461047b565b6001600160a01b0316145b8061068857506106888185610aaa565b826001600160a01b0316610c8182610690565b6001600160a01b031614610ca75760405162461bcd60e51b81526004016104a290611b84565b6001600160a01b038216610ccd5760405162461bcd60e51b81526004016104a290611878565b610cd883838361055a565b610ce3600082610b83565b6001600160a01b0383166000908152600460205260408120805460019290610d0c908490611d38565b90915550506001600160a01b0382166000908152600460205260408120805460019290610d3a908490611d0c565b909155505060008181526003602052604080822080546001600160a01b0319166001600160a01b0386811691821790925591518493918716917fddf252ad1be2c89b69c2b068fc378daa952ba7f163c4a11628f55a4df523b3ef91a4505050565b6000826001600160a01b031682604051610db49061168f565b60006040518083038185875af1925050503d8060008114610df1576040519150601f19603f3d011682016040523d82523d6000602084013e610df6565b606091505b505090508061055a5760405162461bcd60e51b81526004016104a290611c88565b5490565b80546001019055565b6105eb828260405180602001604052806000815250610f9a565b610e4782610b62565b610e635760405162461bcd60e51b81526004016104a290611a2f565b6000828152600760209081526040909120825161055a92840190611302565b600080546001600160a01b038381166001600160a01b0319831681178455604051919092169283917f8be0079c531659141344cd1fd0a4f28419497f9722a3daafe3b4186f6b6457e09190a35050565b610edd848484610c6e565b610ee984848484610fcd565b61098b5760405162461bcd60e51b81526004016104a290611772565b60408051602081019091526000815290565b6060610f2282610b62565b610f3e5760405162461bcd60e51b81526004016104a290611bcd565b6000610f48610f05565b90506000815111610f685760405180602001604052806000815250610f93565b80610f72846110e8565b604051602001610f83929190611660565b6040516020818303038152906040525b9392505050565b610fa48383611203565b610fb16000848484610fcd565b61055a5760405162461bcd60e51b81526004016104a290611772565b6000610fe1846001600160a01b03166112e2565b156110dd57836001600160a01b031663150b7a02610ffd610b7f565b8786866040518563ffffffff1660e01b815260040161101f94939291906116a6565b602060405180830381600087803b15801561103957600080fd5b505af1925050508015611069575060408051601f3d908101601f1916820190925261106691810190611600565b60015b6110c3573d808015611097576040519150601f19603f3d011682016040523d82523d6000602084013e61109c565b606091505b5080516110bb5760405162461bcd60e51b81526004016104a290611772565b805181602001fd5b6001600160e01b031916630a85bd0160e11b149050610688565b506001949350505050565b60608161110d57506040805180820190915260018152600360fc1b60208201526103e4565b8160005b8115611137578061112181611db6565b91506111309050600a83611d24565b9150611111565b60008167ffffffffffffffff81111561116057634e487b7160e01b600052604160045260246000fd5b6040519080825280601f01601f19166020018201604052801561118a576020820181803683370190505b5090505b84156106885761119f600183611d38565b91506111ac600a86611dd1565b6111b7906030611d0c565b60f81b8183815181106111da57634e487b7160e01b600052603260045260246000fd5b60200101906001600160f81b031916908160001a9053506111fc600a86611d24565b945061118e565b6001600160a01b0382166112295760405162461bcd60e51b81526004016104a290611a7d565b61123281610b62565b1561124f5760405162461bcd60e51b81526004016104a29061180a565b61125b6000838361055a565b6001600160a01b0382166000908152600460205260408120805460019290611284908490611d0c565b909155505060008181526003602052604080822080546001600160a01b0319166001600160a01b03861690811790915590518392907fddf252ad1be2c89b69c2b068fc378daa952ba7f163c4a11628f55a4df523b3ef908290a45050565b3b151590565b604051806040016040528060008152602001606081525090565b82805461130e90611d7b565b90600052602060002090601f0160209004810192826113305760008555611376565b82601f1061134957805160ff1916838001178555611376565b82800160010185558215611376579182015b8281111561137657825182559160200191906001019061135b565b50611382929150611386565b5090565b5b808211156113825760008155600101611387565b600067ffffffffffffffff808411156113b6576113b6611e11565b604051601f8501601f1916810160200182811182821017156113da576113da611e11565b6040528481529150818385018610156113f257600080fd5b8484602083013760006020868301015250509392505050565b80356001600160a01b03811681146103e457600080fd5b600060208284031215611433578081fd5b610f938261140b565b6000806040838503121561144e578081fd5b6114578361140b565b91506114656020840161140b565b90509250929050565b600080600060608486031215611482578081fd5b61148b8461140b565b92506114996020850161140b565b9150604084013590509250925092565b600080600080608085870312156114be578081fd5b6114c78561140b565b93506114d56020860161140b565b925060408501359150606085013567ffffffffffffffff8111156114f7578182fd5b8501601f81018713611507578182fd5b6115168782356020840161139b565b91505092959194509250565b60008060408385031215611534578182fd5b61153d8361140b565b915060208301358015158114611551578182fd5b809150509250929050565b6000806040838503121561156e578182fd5b6115778361140b565b9150602083013567ffffffffffffffff811115611592578182fd5b8301601f810185136115a2578182fd5b6115b18582356020840161139b565b9150509250929050565b600080604083850312156115cd578182fd5b6115d68361140b565b946020939093013593505050565b6000602082840312156115f5578081fd5b8135610f9381611e27565b600060208284031215611611578081fd5b8151610f9381611e27565b60006020828403121561162d578081fd5b5035919050565b6000815180845261164c816020860160208601611d4f565b601f01601f19169290920160200192915050565b60008351611672818460208801611d4f565b835190830190611686818360208801611d4f565b01949350505050565b90565b6001600160a01b0391909116815260200190565b6001600160a01b03858116825284166020820152604081018390526080606082018190526000906116d990830184611634565b9695505050505050565b60208082528251828201819052600091906040908185019080840286018301878501865b8381101561174657888303603f1901855281518051845287015187840187905261173387850182611634565b9588019593505090860190600101611707565b509098975050505050505050565b901515815260200190565b600060208252610f936020830184611634565b60208082526032908201527f4552433732313a207472616e7366657220746f206e6f6e20455243373231526560408201527131b2b4bb32b91034b6b83632b6b2b73a32b960711b606082015260800190565b60208082526026908201527f4f776e61626c653a206e6577206f776e657220697320746865207a65726f206160408201526564647265737360d01b606082015260800190565b6020808252601c908201527f4552433732313a20746f6b656e20616c7265616479206d696e74656400000000604082015260600190565b60208082526019908201527f4e6f206d6f7265204e465473206c65667420746f206d696e7400000000000000604082015260600190565b60208082526024908201527f4552433732313a207472616e7366657220746f20746865207a65726f206164646040820152637265737360e01b606082015260800190565b60208082526019908201527f4552433732313a20617070726f766520746f2063616c6c657200000000000000604082015260600190565b6020808252602c908201527f4552433732313a206f70657261746f7220717565727920666f72206e6f6e657860408201526b34b9ba32b73a103a37b5b2b760a11b606082015260800190565b60208082526038908201527f4552433732313a20617070726f76652063616c6c6572206973206e6f74206f7760408201527f6e6572206e6f7220617070726f76656420666f7220616c6c0000000000000000606082015260800190565b6020808252602a908201527f4552433732313a2062616c616e636520717565727920666f7220746865207a65604082015269726f206164647265737360b01b606082015260800190565b60208082526029908201527f4552433732313a206f776e657220717565727920666f72206e6f6e657869737460408201526832b73a103a37b5b2b760b91b606082015260800190565b6020808252602e908201527f45524337323155524953746f726167653a2055524920736574206f66206e6f6e60408201526d32bc34b9ba32b73a103a37b5b2b760911b606082015260800190565b6020808252818101527f4552433732313a206d696e7420746f20746865207a65726f2061646472657373604082015260600190565b60208082526031908201527f45524337323155524953746f726167653a2055524920717565727920666f72206040820152703737b732bc34b9ba32b73a103a37b5b2b760791b606082015260800190565b6020808252602c908201527f4552433732313a20617070726f76656420717565727920666f72206e6f6e657860408201526b34b9ba32b73a103a37b5b2b760a11b606082015260800190565b6020808252818101527f4f776e61626c653a2063616c6c6572206973206e6f7420746865206f776e6572604082015260600190565b60208082526029908201527f4552433732313a207472616e73666572206f6620746f6b656e2074686174206960408201526839903737ba1037bbb760b91b606082015260800190565b6020808252602f908201527f4552433732314d657461646174613a2055524920717565727920666f72206e6f60408201526e3732bc34b9ba32b73a103a37b5b2b760891b606082015260800190565b60208082526011908201527056616c75652062656c6f7720707269636560781b604082015260600190565b60208082526021908201527f4552433732313a20617070726f76616c20746f2063757272656e74206f776e656040820152603960f91b606082015260800190565b60208082526010908201526f2a3930b739b332b9103330b4b632b21760811b604082015260600190565b60208082526031908201527f4552433732313a207472616e736665722063616c6c6572206973206e6f74206f6040820152701ddb995c881b9bdc88185c1c1c9bdd9959607a1b606082015260800190565b90815260200190565b60008219821115611d1f57611d1f611de5565b500190565b600082611d3357611d33611dfb565b500490565b600082821015611d4a57611d4a611de5565b500390565b60005b83811015611d6a578181015183820152602001611d52565b8381111561098b5750506000910152565b600281046001821680611d8f57607f821691505b60208210811415611db057634e487b7160e01b600052602260045260246000fd5b50919050565b6000600019821415611dca57611dca611de5565b5060010190565b600082611de057611de0611dfb565b500690565b634e487b7160e01b600052601160045260246000fd5b634e487b7160e01b600052601260045260246000fd5b634e487b7160e01b600052604160045260246000fd5b6001600160e01b031981168114610b4657600080fdfea26469706673582212204b09ac864409d20e5315393898a39f0aaecc6b3487664706474c1a8526d61b8664736f6c63430008000033",
  "immutableReferences": {},
  "source": "//SPDX-License-Identifier: MIT\r\n\r\npragma solidity ^0.8.0;\r\n\r\nimport \"@openzeppelin/contracts/token/ERC721/ERC721.sol\";\r\nimport \"@openzeppelin/contracts/token/ERC721/extensions/ERC721URIStorage.sol\";\r\nimport \"@openzeppelin/contracts/access/Ownable.sol\";\r\nimport \"@openzeppelin/contracts/utils/Counters.sol\";\r\n\r\ncontract SmartContract is Ownable, ERC721URIStorage {\r\n\r\n    using Counters for Counters.Counter;\r\n\r\n    Counters.Counter private _tokenIdTracker;\r\n\r\n    uint256 private MAX_ITEMS;\r\n    uint256 private PRICE;\r\n    \r\n    struct NFToken\r\n    {\r\n        uint256 id;\r\n        string uri;\r\n    }\r\n\r\n    constructor() ERC721(\"Test NFT\", \"TestNFT\") {\r\n        MAX_ITEMS = 30;\r\n        PRICE = 0.06 ether;\r\n    }\r\n\r\n    function CreateCollectible(address _to, string memory uri) public payable returns (uint256) {\r\n        uint256 total = _tokenIdTracker.current();\r\n        require(total < MAX_ITEMS, \"No more NFTs left to mint\");\r\n        require(msg.value >= PRICE, \"Value below price\");\r\n\r\n        _tokenIdTracker.increment();\r\n        uint id = _tokenIdTracker.current();\r\n        _safeMint(_to, id);\r\n        _setTokenURI(id, uri);\r\n        return id;\r\n    }\r\n    \r\n    function GetAllExistingTokens() public view returns(NFToken[] memory){\r\n        NFToken[] memory result=new NFToken[](_tokenIdTracker.current());\r\n        for(uint256 i=0;i<_tokenIdTracker.current();i++){\r\n            if(_exists(i+1)){\r\n                result[i]=NFToken(i+1, tokenURI(i+1));\r\n            }\r\n        }\r\n        return result;\r\n    }\r\n\r\n    function WithdrawAll(address _address) public onlyOwner {\r\n        uint256 balance = address(this).balance;\r\n        require(balance > 0);\r\n        Withdraw(_address, address(this).balance);\r\n    }\r\n\r\n    function Withdraw(address _address, uint256 _amount) private {\r\n        (bool success,) = _address.call{value : _amount}(\"\");\r\n        require(success, \"Transfer failed.\");\r\n    }\r\n    \r\n    function BalanceOf() external view returns (uint)\r\n    {\r\n        return address(this).balance;\r\n    }\r\n}",
  "sourcePath": "C:\\Users\\Predator\\Desktop\\interviewApp\\frontend_base_dapp\\contracts\\SmartContract.sol",
  "compiler": {
    "name": "solc",
    "version": "0.8.0+commit.c7dfd78e.Emscripten.clang"
  },
  "schemaVersion": "3.4.3",
  "updatedAt": "2021-09-15T15:42:02.267Z",
  "networkType": "ethereum",
  "devdoc": {
    "kind": "dev",
    "methods": {
      "approve(address,uint256)": {
        "details": "See {IERC721-approve}."
      },
      "balanceOf(address)": {
        "details": "See {IERC721-balanceOf}."
      },
      "getApproved(uint256)": {
        "details": "See {IERC721-getApproved}."
      },
      "isApprovedForAll(address,address)": {
        "details": "See {IERC721-isApprovedForAll}."
      },
      "name()": {
        "details": "See {IERC721Metadata-name}."
      },
      "owner()": {
        "details": "Returns the address of the current owner."
      },
      "ownerOf(uint256)": {
        "details": "See {IERC721-ownerOf}."
      },
      "renounceOwnership()": {
        "details": "Leaves the contract without owner. It will not be possible to call `onlyOwner` functions anymore. Can only be called by the current owner. NOTE: Renouncing ownership will leave the contract without an owner, thereby removing any functionality that is only available to the owner."
      },
      "safeTransferFrom(address,address,uint256)": {
        "details": "See {IERC721-safeTransferFrom}."
      },
      "safeTransferFrom(address,address,uint256,bytes)": {
        "details": "See {IERC721-safeTransferFrom}."
      },
      "setApprovalForAll(address,bool)": {
        "details": "See {IERC721-setApprovalForAll}."
      },
      "supportsInterface(bytes4)": {
        "details": "See {IERC165-supportsInterface}."
      },
      "symbol()": {
        "details": "See {IERC721Metadata-symbol}."
      },
      "tokenURI(uint256)": {
        "details": "See {IERC721Metadata-tokenURI}."
      },
      "transferFrom(address,address,uint256)": {
        "details": "See {IERC721-transferFrom}."
      },
      "transferOwnership(address)": {
        "details": "Transfers ownership of the contract to a new account (`newOwner`). Can only be called by the current owner."
      }
    },
    "version": 1
  },
  "userdoc": {
    "kind": "user",
    "methods": {},
    "version": 1
  }
}